:0400000007EF00F016
:1000080049826CED0FF0A3EF12F0070E316E170E58
:10001800306E6A0EE82EFED7302EFCD7312EFAD776
:1000280000D0D80E0001D46F7F0E0001D56FF20EFC
:100038000001D66F7E0E0001D76F000E0001D96F48
:10004800000ED86FC3EC10F0070E316E170E306E2D
:100058006A0EE82EFED7302EFCD7312EFAD700D004
:10006800B40E0001D46F7F0E0001D56FF20E0001AF
:10007800D66F7E0E0001D76F000E0001D96F000EFB
:10008800D86FC3EC10F0070E316E170E306E6A0E83
:10009800E82EFED7302EFCD7312EFAD700D0900E9E
:1000A8000001D46F7F0E0001D56FF20E0001D66FEC
:1000B8007E0E0001D76F000E0001D96F000ED86FB9
:1000C800C3EC10F0070E316E170E306E6A0EE82E74
:1000D800FED7302EFCD7312EFAD700D0780E00018B
:1000E800D46F7F0E0001D56FD80E0001D66F7F0E3A
:1000F8000001D76F000E0001D96F000ED86FC3EC56
:1001080010F0070E316E170E306E6A0EE82EFED70D
:10011800302EFCD7312EFAD700D0600E0001D46FF4
:100128007F0E0001D56FB40E0001D66F7F0E00015F
:10013800D76F000E0001D96F000ED86FC3EC10F016
:10014800070E316E170E306E6A0EE82EFED7302E6F
:10015800FCD7312EFAD700D0F00E0001D46F7F0EF5
:100168000001D56F900E0001D66F7F0E0001D76F8A
:10017800000E0001D96F000ED86FC3EC10F0070E07
:10018800316E170E306E6A0EE82EFED7302EFCD771
:10019800312EFAD700D0CC0E0001D46F7F0E0001AB
:1001A800D56F780E0001D66F7F0E0001D76F000E55
:1001B8000001D96F000ED86FC3EC10F0070E316E36
:1001C800170E306E6A0EE82EFED7302EFCD7312E71
:1001D800FAD700D0A80E0001D46F7F0E0001D56FAA
:1001E800600E0001D66F7F0E0001D76F000E000170
:1001F800D96F000ED86FC3EC10F0070E316E170ED2
:10020800306E6A0EE82EFED7302EFCD7312EFAD784
:1002180000D0840E0001D46F7F0E0001D56F480E08
:100228000001D66F7F0E0001D76F000E0001D96F55
:10023800000ED86FC3EC10F0070E316E170E306E3B
:100248006A0EE82EFED7302EFCD7312EFAD700D012
:100258006C0E0001D46F7F0E0001D56F3C0E0001BB
:10026800D66F7F0E0001D76F000E0001D96F000E08
:10027800D86FC3EC10F0070E316E170E306E6A0E91
:10028800E82EFED7302EFCD7312EFAD700D0540EE8
:100298000001D46F7F0E0001D56F300E0001D66FBC
:1002A8007F0E0001D76F000E0001D96F010ED86FC5
:1002B800C3EC10F0070E316E170E306E6A0EE82E82
:1002C800FED7302EFCD7312EFAD700D03C0E0001D5
:1002D800D46F7F0E0001D56FE40E0001D66F7F0E3C
:1002E8000001D76F000E0001D96F000ED86FC3EC64
:1002F80010F0070E316E170E306E6A0EE82EFED71C
:10030800302EFCD7312EFAD700D0300E0001D46F32
:100318007F0E0001D56FC00E0001D66F7F0E000161
:10032800D76F000E0001D96F000ED86FC3EC10F024
:10033800070E316E170E306E6A0EE82EFED7302E7D
:10034800FCD7312EFAD700D0240E0001D46F7F0ECF
:100358000001D56F9C0E0001D66F7F0E0001D76F8C
:10036800000E0001D96F020ED86FC3EC10F0070E13
:10037800316E170E306E6A0EE82EFED7302EFCD77F
:10038800312EFAD700D0180E0001D46F7F0E00016D
:10039800D56F780E0001D66F7F0E0001D76F000E63
:1003A8000001D96F000ED86FC3EC10F0070E316E44
:1003B800170E306E6A0EE82EFED7302EFCD7312E7F
:1003C800FAD700D00C0E0001D46F7F0E0001D56F54
:1003D800600E0001D66F7F0E0001D76F000E00017E
:1003E800D96F010ED86FC3EC10F0070E316E170EDF
:1003F800306E6A0EE82EFED7302EFCD7312EFAD793
:1004080000D0F20E0001D46F7E0E0001D56F480EA9
:100418000001D66F7F0E0001D76F000E0001D96F63
:10042800000ED86FC3EC10F0070E316E170E306E49
:100438006A0EE82EFED7302EFCD7312EFAD700D020
:10044800F20E0001D46F7E0E0001D56F3C0E000144
:10045800D66F7F0E0001D76F000E0001D96F000E16
:10046800D86FC3EC10F0070E316E170E306E6A0E9F
:10047800E82EFED7302EFCD7312EFAD700D0D80E72
:100488000001D46F7F0E0001D56F300E0001D66FCA
:100498007F0E0001D76F000E0001D96F000ED86FD4
:1004A800C3EC10F0070E316E170E306E6A0EE82E90
:1004B800FED7302EFCD7312EFAD700D0B40E00016B
:1004C800D46F7F0E0001D56F240E0001D66F7F0E0A
:1004D8000001D76F000E0001D96F000ED86FC3EC72
:1004E80010F0070E316E170E306E6A0EE82EFED72A
:1004F800302EFCD7312EFAD700D0900E0001D46FE1
:100508007F0E0001D56F180E0001D66F7F0E000117
:10051800D76F000E0001D96F000ED86FC3EC10F032
:10052800070E316E170E306E6A0EE82EFED7302E8B
:10053800FCD7312EFAD700D0910E0001D46F7F0E70
:100548000001D56F0B0E0001D66F7F0E0001D76F2B
:10055800000E0001D96F000ED86FC3EC10F0070E23
:10056800316E170E306E6A0EE82EFED7302EFCD78D
:10057800312EFAD700D0790E0001D46F7F0E00011A
:10058800D56FFE0E0001D66F7E0E0001D76F000EEC
:100598000001D96F020ED86FC3EC10F0070E316E50
:1005A800170E306E6A0EE82EFED7302EFCD7312E8D
:1005B800FAD700D0610E0001D46F7F0E0001D56F0D
:1005C800F10E0001D66F7E0E0001D76F000E0001FC
:1005D800D96F000ED86FC3EC10F0070E316E170EEE
:1005E800306E6A0EE82EFED7302EFCD7312EFAD7A1
:1005F80000D0490E0001D46F7F0E0001D56FF10EB7
:100608000001D66F7E0E0001D76F000E0001D96F72
:10061800000ED86FC3EC10F0070E316E170E306E57
:100628006A0EE82EFED7302EFCD7312EFAD700D02E
:100638003D0E0001D46F7F0E0001D56FF10E000151
:10064800D66F7E0E0001D76F000E0001D96F000E25
:10065800D86FC3EC10F0070E316E170E306E6A0EAD
:10066800E82EFED7302EFCD7312EFAD700D0310E27
:100678000001D46F7F0E0001D56FF10E0001D66F17
:100688007E0E0001D76F000E0001D96F000ED86FE3
:10069800C3EC10F0070E316E170E306E6A0EE82E9E
:1006A800FED7302EFCD7312EFAD700D0250E000108
:1006B800D46F7F0E0001D56FF10E0001D66F7E0E4C
:1006C8000001D76F000E0001D96F000ED86FC3EC80
:1006D80010F0070E316E170E306E6A0EE82EFED738
:1006E800302EFCD7312EFAD700D0190E0001D46F66
:1006F8007F0E0001D56FF10E0001D66F7E0E00014E
:10070800D76F000E0001D96F010ED86FC3EC10F03F
:10071800070E316E170E306E6A0EE82EFED7302E99
:10072800FCD7312EFAD700D0F30E0001D46F7E0E1D
:100738000001D56FF10E0001D66F7E0E0001D76F54
:10074800000E0001D96F000ED86FC3EC10F0120034
:10075800040E336E0C0E326E340EE82EFED7322E97
:10076800FCD7332EFAD7D80E0001D46F7F0E0001C4
:10077800D56FF20E0001D66F7E0E0001D76F000E06
:100788000001D96F000ED86FC3EC10F0040E336E61
:100798000C0E326E340EE82EFED7322EFCD7332ED6
:1007A800FAD7B40E0001D46F7F0E0001D56FF20E98
:1007B8000001D66F7E0E0001D76F000E0001D96FC1
:1007C800000ED86FC3EC10F0040E336E0C0E326EB0
:1007D800340EE82EFED7322EFCD7332EFAD7900EE1
:1007E8000001D46F7F0E0001D56FF20E0001D66FA5
:1007F8007E0E0001D76F000E0001D96F000ED86F72
:10080800C3EC10F0040E336E0C0E326E340EE82E6C
:10081800FED7322EFCD7332EFAD7780E0001D46FCC
:100828007F0E0001D56FD80E0001D66F7F0E000134
:10083800D76F000E0001D96F000ED86FC3EC10F00F
:10084800040E336E0C0E326E340EE82EFED7322EA6
:10085800FCD7332EFAD7600E0001D46F7F0E00014B
:10086800D56FB40E0001D66F7F0E0001D76F000E52
:100878000001D96F000ED86FC3EC10F0040E336E70
:100888000C0E326E340EE82EFED7322EFCD7332EE5
:10089800FAD7F00E0001D46F7F0E0001D56F900ECD
:1008A8000001D66F7F0E0001D76F000E0001D96FCF
:1008B800000ED86FC3EC10F0040E336E0C0E326EBF
:1008C800340EE82EFED7322EFCD7332EFAD7CC0EB4
:1008D8000001D46F7F0E0001D56F780E0001D66F2E
:1008E8007F0E0001D76F000E0001D96F000ED86F80
:1008F800C3EC10F0040E336E0C0E326E340EE82E7C
:10090800FED7322EFCD7332EFAD7A80E0001D46FAB
:100918007F0E0001D56F600E0001D66F7F0E0001BB
:10092800D76F000E0001D96F000ED86FC3EC10F01E
:10093800040E336E0C0E326E340EE82EFED7322EB5
:10094800FCD7332EFAD7840E0001D46F7F0E000136
:10095800D56F480E0001D66F7F0E0001D76F000ECD
:100968000001D96F000ED86FC3EC10F0040E336E7F
:100978000C0E326E340EE82EFED7322EFCD7332EF4
:10098800FAD76C0E0001D46F7F0E0001D56F3C0EB4
:100998000001D66F7F0E0001D76F000E0001D96FDE
:1009A800000ED86FC3EC10F0040E336E0C0E326ECE
:1009B800340EE82EFED7322EFCD7332EFAD7540E3B
:1009C8000001D46F7F0E0001D56F300E0001D66F85
:1009D8007F0E0001D76F000E0001D96F010ED86F8E
:1009E800C3EC10F0040E336E0C0E326E340EE82E8B
:1009F800FED7322EFCD7332EFAD73C0E0001D46F27
:100A08007F0E0001D56FE40E0001D66F7F0E000146
:100A1800D76F000E0001D96F000ED86FC3EC10F02D
:100A2800040E336E0C0E326E340EE82EFED7322EC4
:100A3800FCD7332EFAD7300E0001D46F7F0E000199
:100A4800D56FC00E0001D66F7F0E0001D76F000E64
:100A58000001D96F000ED86FC3EC10F0040E336E8E
:100A68000C0E326E340EE82EFED7322EFCD7332E03
:100A7800FAD7240E0001D46F7F0E0001D56F9C0EAB
:100A88000001D66F7F0E0001D76F000E0001D96FED
:100A9800020ED86FC3EC10F0040E336E0C0E326EDB
:100AA800340EE82EFED7322EFCD7332EFAD7180E86
:100AB8000001D46F7F0E0001D56F780E0001D66F4C
:100AC8007F0E0001D76F000E0001D96F000ED86F9E
:100AD800C3EC10F0040E336E0C0E326E340EE82E9A
:100AE800FED7322EFCD7332EFAD70C0E0001D46F66
:100AF8007F0E0001D56F600E0001D66F7F0E0001DA
:100B0800D76F000E0001D96F010ED86FC3EC10F03B
:100B1800040E336E0C0E326E340EE82EFED7322ED3
:100B2800FCD7332EFAD7F20E0001D46F7E0E0001E7
:100B3800D56F480E0001D66F7F0E0001D76F000EEB
:100B48000001D96F000ED86FC3EC10F0040E336E9D
:100B58000C0E326E340EE82EFED7322EFCD7332E12
:100B6800FAD7F20E0001D46F7E0E0001D56F3C0E4D
:100B78000001D66F7F0E0001D76F000E0001D96FFC
:100B8800000ED86FC3EC10F0040E336E0C0E326EEC
:100B9800340EE82EFED7322EFCD7332EFAD7D80ED5
:100BA8000001D46F7F0E0001D56F300E0001D66FA3
:100BB8007F0E0001D76F000E0001D96F000ED86FAD
:100BC800C3EC10F0040E336E0C0E326E340EE82EA9
:100BD800FED7322EFCD7332EFAD7B40E0001D46FCD
:100BE8007F0E0001D56F240E0001D66F7F0E000125
:100BF800D76F000E0001D96F000ED86FC3EC10F04C
:100C0800040E336E0C0E326E340EE82EFED7322EE2
:100C1800FCD7332EFAD7900E0001D46F7F0E000157
:100C2800D56F180E0001D66F7F0E0001D76F000E2A
:100C38000001D96F000ED86FC3EC10F0040E336EAC
:100C48000C0E326E340EE82EFED7322EFCD7332E21
:100C5800FAD7910E0001D46F7F0E0001D56F0B0EED
:100C68000001D66F7F0E0001D76F000E0001D96F0B
:100C7800000ED86FC3EC10F0040E336E0C0E326EFB
:100C8800340EE82EFED7322EFCD7332EFAD7790E43
:100C98000001D46F7F0E0001D56FFE0E0001D66FE4
:100CA8007E0E0001D76F000E0001D96F020ED86FBB
:100CB800C3EC10F0040E336E0C0E326E340EE82EB8
:100CC800FED7322EFCD7332EFAD7610E0001D46F2F
:100CD8007F0E0001D56FF10E0001D66F7E0E000168
:100CE800D76F000E0001D96F000ED86FC3EC10F05B
:100CF800040E336E0C0E326E340EE82EFED7322EF2
:100D0800FCD7332EFAD7490E0001D46F7F0E0001AD
:100D1800D56FF10E0001D66F7E0E0001D76F000E61
:100D28000001D96F000ED86FC3EC10F0040E336EBB
:100D38000C0E326E340EE82EFED7322EFCD7332E30
:100D4800FAD73D0E0001D46F7F0E0001D56FF10E6A
:100D58000001D66F7E0E0001D76F000E0001D96F1B
:100D6800000ED86FC3EC10F0040E336E0C0E326E0A
:100D7800340EE82EFED7322EFCD7332EFAD7310E9A
:100D88000001D46F7F0E0001D56FF10E0001D66F00
:100D98007E0E0001D76F000E0001D96F000ED86FCC
:100DA800C3EC10F0040E336E0C0E326E340EE82EC7
:100DB800FED7322EFCD7332EFAD7250E0001D46F7A
:100DC8007F0E0001D56FF10E0001D66F7E0E000177
:100DD800D76F000E0001D96F000ED86FC3EC10F06A
:100DE800040E336E0C0E326E340EE82EFED7322E01
:100DF800FCD7332EFAD7190E0001D46F7F0E0001ED
:100E0800D56FF10E0001D66F7E0E0001D76F000E70
:100E18000001D96F010ED86FC3EC10F0040E336EC9
:100E28000C0E326E340EE82EFED7322EFCD7332E3F
:100E3800FAD7F30E0001D46F7E0E0001D56FF10EC4
:100E48000001D66F7E0E0001D76F000E0001D96F2A
:100E5800000ED86FC3EC10F0D4C0E6F0D5C0E7F0B0
:100E6800E6C030F0E7C031F012000D0E316E2D0EE5
:100E7800306ED80EE82EFED7302EFCD7312EFAD79A
:100E8800D80E0001D46F7F0E0001D56FF20E00015D
:100E9800D66F7E0E0001D76F000E0001D96F000ECD
:100EA800D86FC3EC10F00D0E316E2D0E306ED80ECB
:100EB800E82EFED7302EFCD7312EFAD7B40E00011B
:100EC800D46F7F0E0001D56FF20E0001D66F7E0E33
:100ED8000001D76F000E0001D96F000ED86FC3EC68
:100EE80010F00D0E316E2D0E306ED80EE82EFED796
:100EF800302EFCD7312EFAD7900E0001D46F7F0E1A
:100F08000001D56FF20E0001D66F7E0E0001D76F7B
:100F1800000E0001D96F000ED86FC3EC10F00D0E53
:100F2800316E2D0E306ED80EE82EFED7302EFCD73F
:100F3800312EFAD7780E0001D46F7F0E0001D56FDD
:100F4800D80E0001D66F7F0E0001D76F000E00018A
:100F5800D96F000ED86FC3EC10F00D0E316E2D0E48
:100F6800306ED80EE82EFED7302EFCD7312EFAD7A9
:100F7800600E0001D46F7F0E0001D56FB40E000122
:100F8800D66F7F0E0001D76F000E0001D96F000EDB
:100F9800D86FC3EC10F00D0E316E2D0E306ED80EDA
:100FA800E82EFED7302EFCD7312EFAD7F00E0001EE
:100FB800D46F7F0E0001D56F900E0001D66F7F0EA3
:100FC8000001D76F000E0001D96F000ED86FC3EC77
:100FD80010F00D0E316E2D0E306ED80EE82EFED7A5
:100FE800302EFCD7312EFAD7CC0E0001D46F7F0EED
:100FF8000001D56F780E0001D66F7F0E0001D76F04
:10100800000E0001D96F000ED86FC3EC10F00D0E62
:10101800316E2D0E306ED80EE82EFED7302EFCD74E
:10102800312EFAD7A80E0001D46F7F0E0001D56FBC
:10103800600E0001D66F7F0E0001D76F000E000111
:10104800D96F000ED86FC3EC10F00D0E316E2D0E57
:10105800306ED80EE82EFED7302EFCD7312EFAD7B8
:10106800840E0001D46F7F0E0001D56F480E000179
:10107800D66F7F0E0001D76F000E0001D96F000EEA
:10108800D86FC3EC10F00D0E316E2D0E306ED80EE9
:10109800E82EFED7302EFCD7312EFAD76C0E000181
:1010A800D46F7F0E0001D56F3C0E0001D66F7F0E06
:1010B8000001D76F000E0001D96F000ED86FC3EC86
:1010C80010F00D0E316E2D0E306ED80EE82EFED7B4
:1010D800302EFCD7312EFAD7540E0001D46F7F0E74
:1010E8000001D56F300E0001D66F7F0E0001D76F5B
:1010F800000E0001D96F010ED86FC3EC10F00D0E71
:10110800316E2D0E306ED80EE82EFED7302EFCD75D
:10111800312EFAD73C0E0001D46F7F0E0001D56F37
:10112800E40E0001D66F7F0E0001D76F000E00019C
:10113800D96F000ED86FC3EC10F00D0E316E2D0E66
:10114800306ED80EE82EFED7302EFCD7312EFAD7C7
:10115800300E0001D46F7F0E0001D56FC00E000164
:10116800D66F7F0E0001D76F000E0001D96F000EF9
:10117800D86FC3EC10F00D0E316E2D0E306ED80EF8
:10118800E82EFED7302EFCD7312EFAD7240E0001D8
:10119800D46F7F0E0001D56F9C0E0001D66F7F0EB5
:1011A8000001D76F000E0001D96F020ED86FC3EC93
:1011B80010F00D0E316E2D0E306ED80EE82EFED7C3
:1011C800302EFCD7312EFAD7180E0001D46F7F0EBF
:1011D8000001D56F780E0001D66F7F0E0001D76F22
:1011E800000E0001D96F000ED86FC3EC10F00D0E81
:1011F800316E2D0E306ED80EE82EFED7302EFCD76D
:10120800312EFAD70C0E0001D46F7F0E0001D56F76
:10121800600E0001D66F7F0E0001D76F000E00012F
:10122800D96F010ED86FC3EC10F00D0E316E2D0E74
:10123800306ED80EE82EFED7302EFCD7312EFAD7D6
:10124800F20E0001D46F7E0E0001D56F480E00012A
:10125800D66F7F0E0001D76F000E0001D96F000E08
:10126800D86FC3EC10F00D0E316E2D0E306ED80E07
:10127800E82EFED7302EFCD7312EFAD7F20E000119
:10128800D46F7E0E0001D56F3C0E0001D66F7F0E25
:101298000001D76F000E0001D96F000ED86FC3ECA4
:1012A80010F00D0E316E2D0E306ED80EE82EFED7D2
:1012B800302EFCD7312EFAD7D80E0001D46F7F0E0E
:1012C8000001D56F300E0001D66F7F0E0001D76F79
:1012D800000E0001D96F000ED86FC3EC10F00D0E90
:1012E800316E2D0E306ED80EE82EFED7302EFCD77C
:1012F800312EFAD7B40E0001D46F7F0E0001D56FDE
:10130800240E0001D66F7F0E0001D76F000E00017A
:10131800D96F000ED86FC3EC10F00D0E316E2D0E84
:10132800306ED80EE82EFED7302EFCD7312EFAD7E5
:10133800900E0001D46F7F0E0001D56F180E0001CA
:10134800D66F7F0E0001D76F000E0001D96F000E17
:10135800D86FC3EC10F00D0E316E2D0E306ED80E16
:10136800E82EFED7302EFCD7312EFAD7910E000189
:10137800D46F7F0E0001D56F0B0E0001D66F7F0E64
:101388000001D76F000E0001D96F000ED86FC3ECB3
:1013980010F00D0E316E2D0E306ED80EE82EFED7E1
:1013A800302EFCD7312EFAD7790E0001D46F7F0E7C
:1013B8000001D56FFE0E0001D66F7E0E0001D76FBB
:1013C800000E0001D96F020ED86FC3EC10F00D0E9D
:1013D800316E2D0E306ED80EE82EFED7302EFCD78B
:1013E800312EFAD7610E0001D46F7F0E0001D56F40
:1013F800F10E0001D66F7E0E0001D76F000E0001BE
:10140800D96F000ED86FC3EC10F00D0E316E2D0E93
:10141800306ED80EE82EFED7302EFCD7312EFAD7F4
:10142800490E0001D46F7F0E0001D56FF10E000147
:10143800D66F7E0E0001D76F000E0001D96F000E27
:10144800D86FC3EC10F00D0E316E2D0E306ED80E25
:10145800E82EFED7302EFCD7312EFAD73D0E0001EC
:10146800D46F7F0E0001D56FF10E0001D66F7E0E8E
:101478000001D76F000E0001D96F000ED86FC3ECC2
:1014880010F00D0E316E2D0E306ED80EE82EFED7F0
:10149800302EFCD7312EFAD7310E0001D46F7F0ED3
:1014A8000001D56FF10E0001D66F7E0E0001D76FD7
:1014B800000E0001D96F000ED86FC3EC10F00D0EAE
:1014C800316E2D0E306ED80EE82EFED7302EFCD79A
:1014D800312EFAD7250E0001D46F7F0E0001D56F8B
:1014E800F10E0001D66F7E0E0001D76F000E0001CD
:1014F800D96F000ED86FC3EC10F00D0E316E2D0EA3
:10150800306ED80EE82EFED7302EFCD7312EFAD703
:10151800190E0001D46F7F0E0001D56FF10E000186
:10152800D66F7E0E0001D76F000E0001D96F010E35
:10153800D86FC3EC10F00D0E316E2D0E306ED80E34
:10154800E82EFED7302EFCD7312EFAD7F30E000145
:10155800D46F7E0E0001D56FF10E0001D66F7E0E9E
:101568000001D76F000E0001D96F000ED86FC3ECD1
:1015780010F01200110E316EBE0E306EAA0EE82E5B
:10158800FED7302EFCD7312EFAD7D80E0001D46FF3
:101598007F0E0001D56FF20E0001D66F7E0E00019E
:1015A800D76F000E0001D96F000ED86FC3EC10F092
:1015B800110E316EBE0E306EAA0EE82EFED7302EFA
:1015C800FCD7312EFAD7B40E0001D46F7F0E00017C
:1015D800D56FF20E0001D66F7E0E0001D76F000E98
:1015E8000001D96F000ED86FC3EC10F0110E316EE8
:1015F800BE0E306EAA0EE82EFED7302EFCD7312E46
:10160800FAD7900E0001D46F7F0E0001D56FF20E4D
:101618000001D66F7E0E0001D76F000E0001D96F52
:10162800000ED86FC3EC10F0110E316EBE0E306E86
:10163800AA0EE82EFED7302EFCD7312EFAD7780E18
:101648000001D46F7F0E0001D56FD80E0001D66F50
:101658007F0E0001D76F000E0001D96F000ED86F02
:10166800C3EC10F0110E316EBE0E306EAA0EE82ECD
:10167800FED7302EFCD7312EFAD7600E0001D46F7A
:101688007F0E0001D56FB40E0001D66F7F0E0001EA
:10169800D76F000E0001D96F000ED86FC3EC10F0A1
:1016A800110E316EBE0E306EAA0EE82EFED7302E09
:1016B800FCD7312EFAD7F00E0001D46F7F0E00014F
:1016C800D56F900E0001D66F7F0E0001D76F000E08
:1016D8000001D96F000ED86FC3EC10F0110E316EF7
:1016E800BE0E306EAA0EE82EFED7302EFCD7312E55
:1016F800FAD7CC0E0001D46F7F0E0001D56F780E9B
:101708000001D66F7F0E0001D76F000E0001D96F60
:10171800000ED86FC3EC10F0110E316EBE0E306E95
:10172800AA0EE82EFED7302EFCD7312EFAD7A80EF7
:101738000001D46F7F0E0001D56F600E0001D66FD7
:101748007F0E0001D76F000E0001D96F000ED86F11
:10175800C3EC10F0110E316EBE0E306EAA0EE82EDC
:10176800FED7302EFCD7312EFAD7840E0001D46F65
:101778007F0E0001D56F480E0001D66F7F0E000165
:10178800D76F000E0001D96F000ED86FC3EC10F0B0
:10179800110E316EBE0E306EAA0EE82EFED7302E18
:1017A800FCD7312EFAD76C0E0001D46F7F0E0001E2
:1017B800D56F3C0E0001D66F7F0E0001D76F000E6B
:1017C8000001D96F000ED86FC3EC10F0110E316E06
:1017D800BE0E306EAA0EE82EFED7302EFCD7312E64
:1017E800FAD7540E0001D46F7F0E0001D56F300E6A
:1017F8000001D66F7F0E0001D76F000E0001D96F70
:10180800010ED86FC3EC10F0110E316EBE0E306EA3
:10181800AA0EE82EFED7302EFCD7312EFAD73C0E72
:101828000001D46F7F0E0001D56FE40E0001D66F62
:101838007F0E0001D76F000E0001D96F000ED86F20
:10184800C3EC10F0110E316EBE0E306EAA0EE82EEB
:10185800FED7302EFCD7312EFAD7300E0001D46FC8
:101868007F0E0001D56FC00E0001D66F7F0E0001FC
:10187800D76F000E0001D96F000ED86FC3EC10F0BF
:10188800110E316EBE0E306EAA0EE82EFED7302E27
:10189800FCD7312EFAD7240E0001D46F7F0E000139
:1018A800D56F9C0E0001D66F7F0E0001D76F000E1A
:1018B8000001D96F020ED86FC3EC10F0110E316E13
:1018C800BE0E306EAA0EE82EFED7302EFCD7312E73
:1018D800FAD7180E0001D46F7F0E0001D56F780E6D
:1018E8000001D66F7F0E0001D76F000E0001D96F7F
:1018F800000ED86FC3EC10F0110E316EBE0E306EB4
:10190800AA0EE82EFED7302EFCD7312EFAD70C0EB1
:101918000001D46F7F0E0001D56F600E0001D66FF5
:101928007F0E0001D76F000E0001D96F010ED86F2E
:10193800C3EC10F0110E316EBE0E306EAA0EE82EFA
:10194800FED7302EFCD7312EFAD7F20E0001D46F15
:101958007E0E0001D56F480E0001D66F7F0E000184
:10196800D76F000E0001D96F000ED86FC3EC10F0CE
:10197800110E316EBE0E306EAA0EE82EFED7302E36
:10198800FCD7312EFAD7F20E0001D46F7E0E00017B
:10199800D56F3C0E0001D66F7F0E0001D76F000E89
:1019A8000001D96F000ED86FC3EC10F0110E316E24
:1019B800BE0E306EAA0EE82EFED7302EFCD7312E82
:1019C800FAD7D80E0001D46F7F0E0001D56F300E04
:1019D8000001D66F7F0E0001D76F000E0001D96F8E
:1019E800000ED86FC3EC10F0110E316EBE0E306EC3
:1019F800AA0EE82EFED7302EFCD7312EFAD7B40E19
:101A08000001D46F7F0E0001D56F240E0001D66F40
:101A18007F0E0001D76F000E0001D96F000ED86F3E
:101A2800C3EC10F0110E316EBE0E306EAA0EE82E09
:101A3800FED7302EFCD7312EFAD7900E0001D46F86
:101A48007F0E0001D56F180E0001D66F7F0E0001C2
:101A5800D76F000E0001D96F000ED86FC3EC10F0DD
:101A6800110E316EBE0E306EAA0EE82EFED7302E45
:101A7800FCD7312EFAD7910E0001D46F7F0E0001EA
:101A8800D56F0B0E0001D66F7F0E0001D76F000EC9
:101A98000001D96F000ED86FC3EC10F0110E316E33
:101AA800BE0E306EAA0EE82EFED7302EFCD7312E91
:101AB800FAD7790E0001D46F7F0E0001D56FFE0EA4
:101AC8000001D66F7E0E0001D76F000E0001D96F9E
:101AD800020ED86FC3EC10F0110E316EBE0E306ED0
:101AE800AA0EE82EFED7302EFCD7312EFAD7610E7B
:101AF8000001D46F7F0E0001D56FF10E0001D66F83
:101B08007E0E0001D76F000E0001D96F000ED86F4E
:101B1800C3EC10F0110E316EBE0E306EAA0EE82E18
:101B2800FED7302EFCD7312EFAD7490E0001D46FDC
:101B38007F0E0001D56FF10E0001D66F7E0E0001F9
:101B4800D76F000E0001D96F000ED86FC3EC10F0EC
:101B5800110E316EBE0E306EAA0EE82EFED7302E54
:101B6800FCD7312EFAD73D0E0001D46F7F0E00014D
:101B7800D56FF10E0001D66F7E0E0001D76F000EF3
:101B88000001D96F000ED86FC3EC10F0110E316E42
:101B9800BE0E306EAA0EE82EFED7302EFCD7312EA0
:101BA800FAD7310E0001D46F7F0E0001D56FF10E08
:101BB8000001D66F7E0E0001D76F000E0001D96FAD
:101BC800000ED86FC3EC10F0110E316EBE0E306EE1
:101BD800AA0EE82EFED7302EFCD7312EFAD7250EC6
:101BE8000001D46F7F0E0001D56FF10E0001D66F92
:101BF8007E0E0001D76F000E0001D96F000ED86F5E
:101C0800C3EC10F0110E316EBE0E306EAA0EE82E27
:101C1800FED7302EFCD7312EFAD7190E0001D46F1B
:101C28007F0E0001D56FF10E0001D66F7E0E000108
:101C3800D76F000E0001D96F010ED86FC3EC10F0FA
:101C4800110E316EBE0E306EAA0EE82EFED7302E63
:101C5800FCD7312EFAD7F30E0001D46F7E0E0001A7
:101C6800D56FF10E0001D66F7E0E0001D76F000E02
:101C78000001D96F000ED86FC3EC10F012009E96C9
:101C8800C6AE03D1C69E000E406E000E0001B56FB1
:101C9800000E0001B66F12000001A8B31200A6C022
:101CA800B5F0A7C0B6F0A6C0D9FFA7C0DAFFDF50CD
:101CB8003F6E000120EE01F0A651D926A751DA2285
:101CC800DECFB7F0DDCFB8F0060E0001A627000E74
:101CD800A723D40E0001A6190BE1000E0001A719D5
:101CE800D8A406D0CE0E0001A66F000E0001A76F83
:101CF8000001A8910001A4510001A61908E1000102
:101D0800A5510001A719D8A402D00001A883C58055
:101D1800020E406E1200C582020E406E1200C5AC63
:101D280006D00001AA2B040E28EC14F01200D8905B
:101D38004830026E4730016E0150C96E47A003D08B
:101D48000B0E406E1200030E406E1200C5AC06D09A
:101D58000001AA2B040E28EC14F01200C58247C01B
:101D680001F048C002F002C001F0026A060E011636
:101D7800000E0216F00E0110476E0250486E4780A2
:101D8800010E3D6E020E406E12003D04D8B41CD008
:101D9800B7C0D9FFB8C0DAFFDECF47F0DDCF48F0D3
:101DA800000120EE03F0B751D926B851DA22DECF70
:101DB800B3F0DDCFB4F0000120EE02F0B751D92620
:101DC800B851DA22DF503E6E47C0C9FF47A003D0A2
:101DD800050E406E1200030E406E1200C5AC07D00F
:101DE8000001AA2BC59C050E28EC14F012003E0633
:101DF8003E28D8A40FD0060E0001B727000EB8233E
:101E08003F2E04D0000E28EC14F01200C582020EFA
:101E1800406E1200B3C0D9FFB4C0DAFFDF50C96EFC
:101E28000001B34BB42B1200C5AC07D00001AA2B9C
:101E3800040E28EC14F0C59C1200C586080E406EEE
:101E48001200080E406EC5861200B3C0D9FFB4C098
:101E5800DAFFC9CFDFFF0001B34BB42B010E3E5EA2
:101E6800D8B404D0C59A060E406E03D0C58AC1EC1A
:101E780013F0C5881200000E28EC14F012000001BF
:101E8800AA2B060E28EC14F012004050000AD8B411
:101E980003D7010AD8B43FD7030AD8B476D7010AC2
:101EA800D8B49CD7070AD8B4E6D7010AD8B4BCD7A7
:101EB800030AD8B4C6D7010AD8B4DDD70F0AD8B4F4
:101EC800C4D7020AD8B42BD7010AD8B43FD7D7D77A
:101ED8000600FACF03F0FBCF04F0E9CF05F0EACF14
:101EE80006F0E1CF07F0E2CF08F0D9CF09F0DACF5A
:101EF8000AF0F3CF0BF0F4CF0CF0F6CF0DF0F7CFDC
:101F08000EF0F8CF0FF0F5CF10F049C011F04AC02D
:101F180012F04BC013F04CC014F09DBC9EAC04D022
:101F280037EC14F09E9C61D0F2BAF2A404D0CEEC47
:101F380013F0F2945AD0A0B8A1A804D035EC14F04C
:101F4800A19853D0A0B6A1A604D036EC14F0A1965F
:101F58004CD09DB69EA604D043EC0EF09E9645D07C
:101F68009DB89EA804D08FEC13F09E983ED09DBAE1
:101F78009EAA04D01FEC14F09E9A37D09DB09EA064
:101F880004D030EC14F09E9030D0F2B6F2A006D017
:101F980031EC14F081CF15F0F29027D0F2B8F2A20C
:101FA80004D034EC14F0F29220D0F0B6F0A004D0B3
:101FB80033EC14F0F09019D0F0B8F0A204D032EC61
:101FC80014F0F09212D0A0B0A1A002D0A1900DD030
:101FD800A0B2A1A204D078EC13F0A19206D09DB2D1
:101FE8009EA203D02FEC14F09E9214C04CF013C0A4
:101FF8004BF012C04AF011C049F010C0F5FF0FC0F5
:10200800F8FF0EC0F7FF0DC0F6FF0CC0F4FF0BC0C1
:10201800F3FF0AC0DAFF09C0D9FF08C0E2FF07C012
:10202800E1FF06C0EAFF05C0E9FF04C0FBFF03C0EB
:10203800FAFF49921100260E296E000E2A6E8CD0E6
:10204800250E2F18D8B409D022C0D9FF23C0DAFF33
:102058002FC0DFFF224A232A7FD0000E2B6E24C018
:10206800F6FF25C0F7FF244A252A0800F5CF2FF0F0
:102078002F50000AD8B47CD0640AD8B403D00D0A13
:10208800D8A46AD029C0D9FF2AC0DAFFDECF2DF044
:10209800DDCF2EF0020E2926000E2A222EAE06D003
:1020A800030E2B122D6C2E1ED8B02E2A010E2F6E69
:1020B800050E2F18D8B412D02F50020DD70EF324C6
:1020C800F66E7E0EF420F76E0900F5502D5C0900BF
:1020D800F5502E58D8A002D02F2AEAD72BC028F0C6
:1020E800030E2816D8B408D022C0D9FF23C0DAFFBF
:1020F8002D0EDF6E224A232A2FC02CF029D02C5017
:10210800020DD70EF324F66E7E0EF420F76E09004A
:10211800F5CF18F00A00F5CF19F02DC016F02EC033
:1021280017F051EC12F016C01DF017C01EF0000E8B
:10213800206E0A0E1F6EC6EC12F01D50300F2F6E67
:1021480022C0D9FF23C0DAFF2FC0DFFF224A232A8B
:102158002C062C28D8A4D3D724C0F6FF25C0F7FF17
:10216800244A252A0800F5CF2FF02F50D8A468D785
:1021780022C0D9FF23C0DAFF000EDF6E1200DAECAE
:1021880013F043EC13F00009D8A4FBD7000E7AEC47
:1021980012F0D4C017F0D5C018F0CDEC11F043EC14
:1021A80013F00009D8A4FBD70D0E7AEC12F0DA0E62
:1021B800226E000E236EFC0E246E7F0E256E3AC032
:1021C80026F03BC027F01FEC10F0DA0E176E000E59
:1021D800186ECDEC11F043EC13F00009D8A4FBD72E
:1021E800400E7AEC12F0D6C017F0D7C018F0CDEC3C
:1021F80011F0000E60EC13F016C0B1F017C0B2F089
:10220800020E0001B25DD8B013D043EC13F0000900
:10221800D8A4FBD7000E7AEC12F0000E186E010E4F
:10222800176EF0EC13F0000E0001E56F010E12D0EE
:1022380043EC13F00009D8A4FBD7400E7AEC12F057
:10224800000E186E010E176EF0EC13F0000E000170
:10225800E56F020EE46F0001D8510001E4190CE1AA
:102268000001D9510001E519D8A406D0F60E3A2488
:102278003A6EFF0E3B203B6E010E3A243A6E000E7A
:102288003B203B6E3AC0D4F03BC0D5F012001A6E2A
:10229800F00E8316F00E9516959A9598959C8C9A43
:1022A8008C988C9CF9EC13F0300E06EC13F0050EAC
:1022B800E5EC13F0300E06EC13F0010EE5EC13F02C
:1022C800320E06EC13F043EC13F00009D8A4FBD748
:1022D80043EC13F00009D8A4FBD71A5006EC13F00E
:1022E80043EC13F00009D8A4FBD7080E06EC13F052
:1022F80043EC13F00009D8A4FBD70F0E06EC13F03B
:1023080043EC13F00009D8A4FBD7010E06EC13F038
:1023180043EC13F00009D8A4FBD7040E06EC13F025
:1023280043EC13F00009D8A4FBD7800E7AEC12F026
:102338001200DAEC13F0F28EF28CF20E176E000E29
:10234800186E000E196E26EC12F0EA0E176E000ECB
:10235800186E010E196E26EC12F0000E936E818035
:10236800BEEC0AF08190818239EC07F08192818479
:1023780009EC00F081948186ACEC03F030C0E8F001
:1023880031C0E9F0E8C030F0E9C031F0FBEC11F001
:10239800F9D719D043EC13F00009D8A4FBD717C01C
:1023A800F6FF18C0F7FFF86A070EF76403D00800B5
:1023B800F55005D0F6CFE9FFF7CFEAFFEF50E7EC8D
:1023C80012F0174A182A17C0F6FF18C0F7FFF86A64
:1023D800070EF76403D00800F55005D0F6CFE9FFE3
:1023E800F7CFEAFFEF500009D8B41200D3D743EC77
:1023F80013F00009D8A4FBD7000E7AEC12F0E10E16
:10240800176E7E0E186ECDEC11F043EC13F0000938
:10241800D8A4FBD7400E7AEC12F0D40E226E000E30
:10242800236EFC0E246E7F0E256E30C026F031C060
:1024380027F01FEC10F0D40E176E000E186ECDECBE
:1024480011F01200000E1A6E43EC13F00009D8A424
:10245800FBD71950080DF350400F06EC13F0000E8F
:102468001C6E000E1B6E1CBE06D01C5015E1080E1B
:102478001B5CD8B0120043EC13F00009D8A4FBD7BA
:102488001B501724D96E1C501820DA6EDF50E7EC69
:1024980012F01B4A1C2AE7D71200000E1C6E000E11
:1024A8001B6E18501910D8B41CD0010E1A6E04D027
:1024B800D890183619361A2A19AEFAD7D8901B367A
:1024C8001C361850165C19501758D8A005D018504B
:1024D800165E1950175A1B80D890193218321A2EC6
:1024E800EDD71BC016F01CC017F01200196EF00EC5
:1024F8009516F00E83161950166E176A168E040E6E
:10250800186E173417321632182EFBD716500F0BC9
:1025180083128C9A8C9824EC14F08C8C24EC14F094
:102528008C9CF00E831619500F0B831224EC14F0B8
:102538008C8C24EC14F08C9C0F0E95121200040E57
:10254800F66E280EF76E000EF86E00EEEAF010EE4A
:1025580010F00900F5CFEEFFE550E150FAE100EE8A
:1025680060F0740EEE6AE806FDE100EE34F0150E38
:10257800EE6AE806FDE149904992000EF86E000106
:102588009DEF11F01F502010D8B418D0010E216E05
:1025980004D0D8901F362036212A20AEFAD71F50F3
:1025A8001D5C20501E58D8A004D01F501D5E20501E
:1025B8001E5AD89020321F32212EF1D71DC01DF08F
:1025C8001EC01EF01200166EF00E9516F00E831641
:1025D80016380F0B0F0B83128C888C9A24EC14F08E
:1025E8008C8C24EC14F08C9CF00E831616500F0B78
:1025F800831224EC14F08C8C24EC14F08C9C0F0EB9
:1026080095121200166EF00E9516F00E83161638F7
:102618000F0B0F0B83128C9A8C9824EC14F08C8C73
:1026280024EC14F08C9CF00E831616500F0B8312BA
:1026380024EC14F08C8C24EC14F08C9C0F0E951266
:102648001200959E8C8E280E4BEC11F043EC13F083
:102658000009D8A4FBD70F0E06EC13F043EC13F0D7
:102668000009D8A4FBD7060E06EC13F043EC13F0D0
:102678000009D8A4FBD7000E7AEC12F012008C8A5D
:102688008C9824EC14F08C8C24EC14F083A60AD0DB
:102698008C9C24EC14F08C8C24EC14F08C9C8C9A7C
:1026A800010E12008C9C24EC14F08C8C24EC14F099
:1026B8008C9C8C9A000E12001A6E1AC018F01846DC
:1026C8001846C2501818C30B1818C26EC280C282AE
:1026D800C2B2FED7C450196E186AC3501824166EB9
:1026E800000E1920176E12003550B36E34C0B2FFB9
:1026F8000001B9510001BA11D8B4120001D8120072
:1027080005000001FA6EB951FD6EBA51FE6EF8501F
:10271800FF6EFA501200080E436012D04450010DAB
:102728009C0EF324D96E000EF420DA6EDF50AD6EE5
:10273800442A070E446402D0000E446E432A120055
:102748009D981200D09E9F9CF194A298A2969F9665
:102758009F989F9A9F90F190A290A2929F921200A8
:10276800110ED56E000E176E000E166E10EC14F0DA
:10277800F294F28A2CEC14F01200060E0001B7272E
:10278800000EB8233F2E03D0040E406E1200010E37
:10279800406E1200000E026E000E016E1AEC14F06C
:1027A8000001C12B010E0001C06F1200A6EC13F04E
:1027B8000AEC14F015EC14F025EC13F0B4EC13F05B
:1027C8001200176E0D0E166EFC0EE82EFED7162E92
:1027D800FCD7172EF7D7120043EC13F00009D8A442
:1027E800FBD71750E7EC12F01200750E166EE10ECB
:1027F800E82EFED7162EFCD700F0120006070606B4
:1028080007171F05040E0E0E0E1F04009280C150FC
:10281800F00B0D09C16E12001750D76E16C0D6FF07
:102828001200600ED36E000E9B6E12000250D76E1F
:1028380001C0D6FF1200ABA21200AB9EAB8E1200F5
:10284800060EE82EFED71200C584000E406E120058
:10285800D58E12001200120012001200120012008F
:08286800120012001200120020
:107ED6000001000A006400E803102774752073632C
:107EE6006F72652065732064653A0020202020208B
:107EF600202020202020200030202020202020208C
:107F0600202020200020302020202020202020207B
:107F1600200020302020202020202020200020208B
:107F2600302020202020202020002020203020204B
:107F3600202020202000202020203020202020204B
:107F4600200020202020203020202020200030204B
:107F5600202020302020202020002020202020202B
:107F660030202020200020302020202030202020FB
:107F7600200020202020202020302020200020202B
:107F860030202020203020202000202020202020EB
:107F960020203020200030202020202020203020CB
:107FA60020002020203020202020302020002020EB
:107FB60020202020202020302000203020202020BB
:107FC600202020302000202020203020202020309B
:107FD60020002020202020202020202030002020CB
:107FE600302020202020202030002020202020307B
:0A7FF6002020202030002564000048
:020000040020DA
:08000000FFFFFFFFFFFFFFFF00
:020000040030CA
:0E000000340E181EFF8080FF0FC00FE00F406F
:00000001FF
