:0400000089EF3AF05A
:1075120000011FEF3CF0410E036EEE0EE82EFED787
:10752200032EFCD700D0120001040210D8A404D00C
:10753200F60ED76ED80ED66E020E01180210D8A41F
:1075420004D0FB0ED76E6C0ED66E030E011802101D
:10755200D8A404D0FE0ED76E170ED66E040E0118F4
:107562000210D8A404D0FE0ED76EC70ED66ED58EEA
:107572000AD08380FF0E00D0E82EFDD78390FF0E45
:1075820000D0E82EFDD7F2A4F4D7F294D59E1200D3
:1075920001040210D8A404D0F60ED76ED80ED66E0F
:1075A200020E01180210D8A404D0FB0ED76E6C0E86
:1075B200D66E030E01180210D8A404D0FE0ED76EA8
:1075C200170ED66E040E01180210D8A404D0FE0EB7
:1075D200D76EC70ED66ED58E0CD08380E30E00D048
:1075E200E82EFDD700F08390E30E00D0E82EFDD701
:1075F20000F0F2A4F2D7F294D59E12000104021018
:10760200D8A404D0F60ED76ED80ED66E020E01188C
:107612000210D8A404D0FB0ED76E6C0ED66E030EE9
:1076220001180210D8A404D0FE0ED76E170ED66E23
:10763200040E01180210D8A404D0FE0ED76EC70E95
:10764200D66ED58E0CD08380D90E00D000D0E82E15
:10765200FCD78390D90E00D000D0E82EFCD7F2A43C
:10766200F2D7F294D59E120001040210D8A404D0DD
:10767200F60ED76ED80ED66E020E01180210D8A4DE
:1076820004D0FB0ED76E6C0ED66E030E01180210DC
:10769200D8A404D0FE0ED76E170ED66E040E0118B3
:1076A2000210D8A404D0FE0ED76EC70ED66ED58EA9
:1076B2000ED08380CA0E00D0E82EFDD700D000D0B5
:1076C2008390CA0E00D0E82EFDD700D000D0F2A4DD
:1076D200F0D7F294D59E120001040210D8A404D06F
:1076E200F60ED76ED80ED66E020E01180210D8A46E
:1076F20004D0FB0ED76E6C0ED66E030E011802106C
:10770200D8A404D0FE0ED76E170ED66E040E011842
:107712000210D8A404D0FE0ED76EC70ED66ED58E38
:1077220010D08380CC0E00D000D0E82EFCD700D041
:1077320000D08390CC0E00D000D0E82EFCD700D031
:1077420000D0F2A4EED7F294D59E120001040210EA
:10775200D8A404D0F60ED76ED80ED66E020E01183B
:107762000210D8A404D0FB0ED76E6C0ED66E030E98
:1077720001180210D8A404D0FE0ED76E170ED66ED2
:10778200040E01180210D8A404D0FE0ED76EC70E44
:10779200D66ED58E12D08380030E036E7B0EE82E3A
:1077A200FED7032EFCD700D08390030E036E710E1A
:1077B200E82EFED7032EFCD700D0F2A4ECD7F29429
:1077C200D59E120001040210D8A404D0F60ED76E82
:1077D200D80ED66E020E01180210D8A404D0FB0EE9
:1077E200D76E6C0ED66E030E01180210D8A404D008
:1077F200FE0ED76E170ED66E040E01180210D8A414
:1078020004D0FE0ED76EC70ED66ED58E12D08380F0
:10781200F20E00D000D0E82EFCD700D000D000D06D
:107822008390F20E00D000D0E82EFCD700D000D01A
:1078320000D0F2A4ECD7F294D59E1200F28AF29410
:10784200D59CD59AD596D550F80B0609D56E000E63
:10785200956E9468000E836E82A0F2D0000E056EC3
:10786200010E046E04C001F005C002F0A7EC3BF06B
:107872008CEC3AF004C001F005C002F0A7EC3BF03A
:107882008CEC3AF004C001F005C002F0A7EC3BF02A
:1078920004C001F005C002F08CEC3AF004C001F023
:1078A20005C002F06DEC3BF004C001F005C002F02F
:1078B200C9EC3AF004C001F005C002F0A7EC3BF0BD
:1078C2008CEC3AF004C001F005C002F0A7EC3BF0EA
:1078D2008CEC3AF004C001F005C002F0A7EC3BF0DA
:1078E20004C001F005C002F08CEC3AF004C001F0D3
:1078F20005C002F06DEC3BF004C001F005C002F0DF
:10790200C9EC3AF004C001F005C002F06DEC3BF0A6
:107912008CEC3AF004C001F005C002F06DEC3BF0D3
:1079220004C001F005C002F0FFEC3AF08CEC3AF032
:1079320004C001F005C002F0FFEC3AF004C001F00F
:1079420005C002F0E3EC3BF08CEC3AF004C001F02D
:1079520005C002F0E3EC3BF004C001F005C002F008
:10796200A7EC3BF004C001F005C002F0A7EC3BF02D
:107972008CEC3AF004C001F005C002F0A7EC3BF039
:107982008CEC3AF004C001F005C002F0A7EC3BF029
:1079920004C001F005C002F0FFEC3AF004C001F0AF
:1079A20005C002F095EC3AF004C001F005C002F007
:1079B200A7EC3BF08CEC3AF004C001F005C002F0F9
:1079C200A7EC3BF08CEC3AF004C001F005C002F0E9
:1079D200A7EC3BF004C001F005C002F0FFEC3AF066
:1079E20004C001F005C002F095EC3AF004C001F0C9
:1079F20005C002F0A7EC3BF004C001F005C002F0A4
:107A0200E3EC3BF004C001F005C002F0A7EC3BF050
:107A120004C001F005C002F035EC3BF004C001F0F7
:107A220005C002F0C9EC3AF004C001F005C002F052
:107A320095EC3AF004C001F005C002F06DEC3BF0A9
:107A420082A2F2D0000E076E020E066E06C001F090
:107A520007C002F0A7EC3BF08CEC3AF006C001F054
:107A620007C002F0A7EC3BF08CEC3AF006C001F044
:107A720007C002F0A7EC3BF006C001F007C002F01D
:107A82008CEC3AF006C001F007C002F06DEC3BF05E
:107A920006C001F007C002F0C9EC3AF006C001F0DE
:107AA20007C002F0A7EC3BF08CEC3AF006C001F004
:107AB20007C002F0A7EC3BF08CEC3AF006C001F0F4
:107AC20007C002F0A7EC3BF006C001F007C002F0CD
:107AD2008CEC3AF006C001F007C002F06DEC3BF00E
:107AE20006C001F007C002F0C9EC3AF006C001F08E
:107AF20007C002F06DEC3BF08CEC3AF006C001F0EE
:107B020007C002F06DEC3BF006C001F007C002F0C6
:107B1200FFEC3AF08CEC3AF006C001F007C002F03C
:107B2200FFEC3AF006C001F007C002F0E3EC3BF0D4
:107B32008CEC3AF006C001F007C002F0E3EC3BF037
:107B420006C001F007C002F0A7EC3BF006C001F04E
:107B520007C002F0A7EC3BF08CEC3AF006C001F053
:107B620007C002F0A7EC3BF08CEC3AF006C001F043
:107B720007C002F0A7EC3BF006C001F007C002F01C
:107B8200FFEC3AF006C001F007C002F095EC3AF0C3
:107B920006C001F007C002F0A7EC3BF08CEC3AF013
:107BA20006C001F007C002F0A7EC3BF08CEC3AF003
:107BB20006C001F007C002F0A7EC3BF006C001F0DE
:107BC20007C002F0FFEC3AF006C001F007C002F075
:107BD20095EC3AF006C001F007C002F0A7EC3BF0CA
:107BE20006C001F007C002F0E3EC3BF006C001F072
:107BF20007C002F0A7EC3BF006C001F007C002F09C
:107C020035EC3BF006C001F007C002F0C9EC3AF0D7
:107C120006C001F007C002F095EC3AF006C001F090
:107C220007C002F06DEC3BF082A4F2D0000E096EA8
:107C3200030E086E08C001F009C002F0A7EC3BF089
:107C42008CEC3AF008C001F009C002F0A7EC3BF05E
:107C52008CEC3AF008C001F009C002F0A7EC3BF04E
:107C620008C001F009C002F08CEC3AF008C001F043
:107C720009C002F06DEC3BF008C001F009C002F04F
:107C8200C9EC3AF008C001F009C002F0A7EC3BF0E1
:107C92008CEC3AF008C001F009C002F0A7EC3BF00E
:107CA2008CEC3AF008C001F009C002F0A7EC3BF0FE
:107CB20008C001F009C002F08CEC3AF008C001F0F3
:107CC20009C002F06DEC3BF008C001F009C002F0FF
:107CD200C9EC3AF008C001F009C002F06DEC3BF0CB
:107CE2008CEC3AF008C001F009C002F06DEC3BF0F8
:107CF20008C001F009C002F0FFEC3AF08CEC3AF057
:107D020008C001F009C002F0FFEC3AF008C001F02F
:107D120009C002F0E3EC3BF08CEC3AF008C001F051
:107D220009C002F0E3EC3BF008C001F009C002F028
:107D3200A7EC3BF008C001F009C002F0A7EC3BF051
:107D42008CEC3AF008C001F009C002F0A7EC3BF05D
:107D52008CEC3AF008C001F009C002F0A7EC3BF04D
:107D620008C001F009C002F0FFEC3AF008C001F0CF
:107D720009C002F095EC3AF008C001F009C002F027
:107D8200A7EC3BF08CEC3AF008C001F009C002F01D
:107D9200A7EC3BF08CEC3AF008C001F009C002F00D
:107DA200A7EC3BF008C001F009C002F0FFEC3AF08A
:107DB20008C001F009C002F095EC3AF008C001F0E9
:107DC20009C002F0A7EC3BF008C001F009C002F0C4
:107DD200E3EC3BF008C001F009C002F0A7EC3BF075
:107DE20008C001F009C002F035EC3BF008C001F018
:107DF20009C002F0C9EC3AF008C001F009C002F073
:107E020095EC3AF008C001F009C002F06DEC3BF0CD
:107E120082A800EF00F0000E0B6E040E0A6E0AC07C
:107E220001F00BC002F0A7EC3BF08CEC3AF00AC078
:107E320001F00BC002F0A7EC3BF08CEC3AF00AC068
:107E420001F00BC002F0A7EC3BF00AC001F00BC03E
:107E520002F08CEC3AF00AC001F00BC002F06DECBB
:107E62003BF00AC001F00BC002F0C9EC3AF00AC0C4
:107E720001F00BC002F0A7EC3BF08CEC3AF00AC028
:107E820001F00BC002F0A7EC3BF08CEC3AF00AC018
:107E920001F00BC002F0A7EC3BF00AC001F00BC0EE
:107EA20002F08CEC3AF00AC001F00BC002F06DEC6B
:107EB2003BF00AC001F00BC002F0C9EC3AF00AC074
:107EC20001F00BC002F06DEC3BF08CEC3AF00AC012
:107ED20001F00BC002F06DEC3BF00AC001F00BC0E8
:107EE20002F0FFEC3AF08CEC3AF00AC001F00BC061
:107EF20002F0FFEC3AF00AC001F00BC002F0E3EC32
:107F02003BF08CEC3AF00AC001F00BC002F0E3EC5B
:107F12003BF00AC001F00BC002F0A7EC3BF00AC034
:107F220001F00BC002F0A7EC3BF08CEC3AF00AC077
:107F320001F00BC002F0A7EC3BF08CEC3AF00AC067
:107F420001F00BC002F0A7EC3BF00AC001F00BC03D
:107F520002F0FFEC3AF00AC001F00BC002F095EC1F
:107F62003AF00AC001F00BC002F0A7EC3BF08CEC37
:107F72003AF00AC001F00BC002F0A7EC3BF08CEC27
:107F82003AF00AC001F00BC002F0A7EC3BF00AC0C5
:107F920001F00BC002F0FFEC3AF00AC001F00BC096
:107FA20002F095EC3AF00AC001F00BC002F0A7EC27
:107FB2003BF00AC001F00BC002F0E3EC3BF00AC058
:107FC20001F00BC002F0A7EC3BF00AC001F00BC0BD
:107FD20002F035EC3BF00AC001F00BC002F0C9EC34
:107FE2003AF00AC001F00BC002F095EC3AF00AC078
:0E7FF20001F00BC002F06DEC3BF000EF00F070
:020000040020DA
:08000000FFFFFFFFFFFFFFFF00
:020000040030CA
:0E000000000C1F1EFF8385FF0FC00FE00F4096
:00000001FF
